{
  "contractName": "MyContract",
  "abi": [
    {
      "inputs": [
        {
          "internalType": "string",
          "name": "_text",
          "type": "string"
        }
      ],
      "stateMutability": "nonpayable",
      "type": "constructor"
    },
    {
      "inputs": [],
      "name": "buyer",
      "outputs": [
        {
          "internalType": "address payable",
          "name": "",
          "type": "address"
        }
      ],
      "stateMutability": "view",
      "type": "function",
      "constant": true
    },
    {
      "inputs": [],
      "name": "hello",
      "outputs": [
        {
          "internalType": "string",
          "name": "",
          "type": "string"
        }
      ],
      "stateMutability": "view",
      "type": "function",
      "constant": true
    },
    {
      "inputs": [],
      "name": "seller",
      "outputs": [
        {
          "internalType": "address payable",
          "name": "",
          "type": "address"
        }
      ],
      "stateMutability": "view",
      "type": "function",
      "constant": true
    },
    {
      "inputs": [],
      "name": "confirmOrder",
      "outputs": [],
      "stateMutability": "nonpayable",
      "type": "function"
    }
  ],
  "bytecode": "0x60806040526040518060400160405280600881526020017f686920616665656e0000000000000000000000000000000000000000000000008152506000908051906020019061004f92919061009b565b5034801561005c57600080fd5b506040516106f53803806106f5833981810160405281019061007e91906102bc565b806000908051906020019061009492919061009b565b5050610366565b8280546100a790610334565b90600052602060002090601f0160209004810192826100c95760008555610110565b82601f106100e257805160ff1916838001178555610110565b82800160010185558215610110579182015b8281111561010f5782518255916020019190600101906100f4565b5b50905061011d9190610121565b5090565b5b8082111561013a576000816000905550600101610122565b5090565b6000604051905090565b600080fd5b600080fd5b600080fd5b600080fd5b6000601f19601f8301169050919050565b7f4e487b7100000000000000000000000000000000000000000000000000000000600052604160045260246000fd5b6101a58261015c565b810181811067ffffffffffffffff821117156101c4576101c361016d565b5b80604052505050565b60006101d761013e565b90506101e3828261019c565b919050565b600067ffffffffffffffff8211156102035761020261016d565b5b61020c8261015c565b9050602081019050919050565b60005b8381101561023757808201518184015260208101905061021c565b83811115610246576000848401525b50505050565b600061025f61025a846101e8565b6101cd565b90508281526020810184848401111561027b5761027a610157565b5b610286848285610219565b509392505050565b600082601f8301126102a3576102a2610152565b5b81516102b384826020860161024c565b91505092915050565b6000602082840312156102d2576102d1610148565b5b600082015167ffffffffffffffff8111156102f0576102ef61014d565b5b6102fc8482850161028e565b91505092915050565b7f4e487b7100000000000000000000000000000000000000000000000000000000600052602260045260246000fd5b6000600282049050600182168061034c57607f821691505b602082108114156103605761035f610305565b5b50919050565b610380806103756000396000f3fe608060405234801561001057600080fd5b506004361061004c5760003560e01c806308551a531461005157806319ff1d211461006f5780637150d8ae1461008d578063a00f198a146100ab575b600080fd5b6100596100b5565b6040516100669190610213565b60405180910390f35b6100776100db565b60405161008491906102c7565b60405180910390f35b610095610169565b6040516100a29190610213565b60405180910390f35b6100b361018f565b005b600160009054906101000a900473ffffffffffffffffffffffffffffffffffffffff1681565b600080546100e890610318565b80601f016020809104026020016040519081016040528092919081815260200182805461011490610318565b80156101615780601f1061013657610100808354040283529160200191610161565b820191906000526020600020905b81548152906001019060200180831161014457829003601f168201915b505050505081565b600260009054906101000a900473ffffffffffffffffffffffffffffffffffffffff1681565b33600260006101000a81548173ffffffffffffffffffffffffffffffffffffffff021916908373ffffffffffffffffffffffffffffffffffffffff160217905550565b600073ffffffffffffffffffffffffffffffffffffffff82169050919050565b60006101fd826101d2565b9050919050565b61020d816101f2565b82525050565b60006020820190506102286000830184610204565b92915050565b600081519050919050565b600082825260208201905092915050565b60005b8381101561026857808201518184015260208101905061024d565b83811115610277576000848401525b50505050565b6000601f19601f8301169050919050565b60006102998261022e565b6102a38185610239565b93506102b381856020860161024a565b6102bc8161027d565b840191505092915050565b600060208201905081810360008301526102e1818461028e565b905092915050565b7f4e487b7100000000000000000000000000000000000000000000000000000000600052602260045260246000fd5b6000600282049050600182168061033057607f821691505b60208210811415610344576103436102e9565b5b5091905056fea264697066735822122083c5aaa50a989b31df60c8033b86d48b3f91164cf964721b927b8f4cb53c3a8a64736f6c634300080a0033",
  "immutableReferences": {},
  "source": "// SPDX-License-Identifier: MIT\npragma solidity >=0.4.22 <0.9.0;\n\ncontract MyContract {\n    string public hello = \"hi afeen\";\n    address payable public seller;\n    address payable public buyer;\n\n    struct Order {\n        string descritption;\n        bool completed;\n    }\n\n    function confirmOrder() public {\n        buyer = payable(msg.sender);\n    }\n\n    constructor(string memory _text) {\n        hello = _text;\n    }\n}\n",
  "sourcePath": "/Users/saidfatah/Documents/learning/web3/solidity/start/firstapp /truffle/contracts/MyContract.sol",
  "compiler": {
    "name": "solc",
    "version": "0.8.10+commit.fc410830.Emscripten.clang"
  },
  "schemaVersion": "3.4.3",
  "updatedAt": "2021-12-12T12:38:35.783Z",
  "networkType": "ethereum",
  "devdoc": {
    "kind": "dev",
    "methods": {},
    "version": 1
  },
  "userdoc": {
    "kind": "user",
    "methods": {},
    "version": 1
  }
}